{
    "_format": "hh-sol-artifact-1",
    "contractName": "Funding",
    "sourceName": "src/Funding.sol",
    "abi": [
        {
            "anonymous": false,
            "inputs": [
                {
                    "indexed": false,
                    "internalType": "uint256",
                    "name": "assetCap",
                    "type": "uint256"
                }
            ],
            "name": "AssetCapUpdated",
            "type": "event"
        },
        {
            "anonymous": false,
            "inputs": [
                {
                    "indexed": false,
                    "internalType": "uint256",
                    "name": "minPrice",
                    "type": "uint256"
                },
                {
                    "indexed": false,
                    "internalType": "uint256",
                    "name": "maxPrice",
                    "type": "uint256"
                }
            ],
            "name": "CitadelPriceBoundsSet",
            "type": "event"
        },
        {
            "anonymous": false,
            "inputs": [
                {
                    "indexed": false,
                    "internalType": "uint256",
                    "name": "price",
                    "type": "uint256"
                },
                {
                    "indexed": false,
                    "internalType": "uint256",
                    "name": "minPrice",
                    "type": "uint256"
                },
                {
                    "indexed": false,
                    "internalType": "uint256",
                    "name": "maxPrice",
                    "type": "uint256"
                }
            ],
            "name": "CitadelPriceFlag",
            "type": "event"
        },
        {
            "anonymous": false,
            "inputs": [
                {
                    "indexed": false,
                    "internalType": "uint256",
                    "name": "citadelPrice",
                    "type": "uint256"
                }
            ],
            "name": "CitadelPriceInAssetUpdated",
            "type": "event"
        },
        {
            "anonymous": false,
            "inputs": [
                {
                    "indexed": true,
                    "internalType": "address",
                    "name": "token",
                    "type": "address"
                },
                {
                    "indexed": false,
                    "internalType": "uint256",
                    "name": "amount",
                    "type": "uint256"
                }
            ],
            "name": "ClaimToTreasury",
            "type": "event"
        },
        {
            "anonymous": false,
            "inputs": [
                {
                    "indexed": true,
                    "internalType": "address",
                    "name": "buyer",
                    "type": "address"
                },
                {
                    "indexed": false,
                    "internalType": "uint256",
                    "name": "assetIn",
                    "type": "uint256"
                },
                {
                    "indexed": false,
                    "internalType": "uint256",
                    "name": "citadelOutValue",
                    "type": "uint256"
                }
            ],
            "name": "Deposit",
            "type": "event"
        },
        {
            "anonymous": false,
            "inputs": [
                {
                    "indexed": false,
                    "internalType": "uint256",
                    "name": "minDiscount",
                    "type": "uint256"
                },
                {
                    "indexed": false,
                    "internalType": "uint256",
                    "name": "maxDiscount",
                    "type": "uint256"
                }
            ],
            "name": "DiscountLimitsSet",
            "type": "event"
        },
        {
            "anonymous": false,
            "inputs": [
                {
                    "indexed": false,
                    "internalType": "address",
                    "name": "discountManager",
                    "type": "address"
                }
            ],
            "name": "DiscountManagerSet",
            "type": "event"
        },
        {
            "anonymous": false,
            "inputs": [
                {
                    "indexed": false,
                    "internalType": "uint256",
                    "name": "discount",
                    "type": "uint256"
                }
            ],
            "name": "DiscountSet",
            "type": "event"
        },
        {
            "anonymous": false,
            "inputs": [
                {
                    "indexed": false,
                    "internalType": "address",
                    "name": "account",
                    "type": "address"
                }
            ],
            "name": "Paused",
            "type": "event"
        },
        {
            "anonymous": false,
            "inputs": [
                {
                    "indexed": true,
                    "internalType": "address",
                    "name": "recipient",
                    "type": "address"
                }
            ],
            "name": "SaleRecipientUpdated",
            "type": "event"
        },
        {
            "anonymous": false,
            "inputs": [
                {
                    "indexed": true,
                    "internalType": "address",
                    "name": "token",
                    "type": "address"
                },
                {
                    "indexed": false,
                    "internalType": "uint256",
                    "name": "amount",
                    "type": "uint256"
                }
            ],
            "name": "Sweep",
            "type": "event"
        },
        {
            "anonymous": false,
            "inputs": [
                {
                    "indexed": false,
                    "internalType": "address",
                    "name": "account",
                    "type": "address"
                }
            ],
            "name": "Unpaused",
            "type": "event"
        },
        {
            "inputs": [],
            "name": "CONTRACT_GOVERNANCE_ROLE",
            "outputs": [
                {
                    "internalType": "bytes32",
                    "name": "",
                    "type": "bytes32"
                }
            ],
            "stateMutability": "view",
            "type": "function"
        },
        {
            "inputs": [],
            "name": "KEEPER_ROLE",
            "outputs": [
                {
                    "internalType": "bytes32",
                    "name": "",
                    "type": "bytes32"
                }
            ],
            "stateMutability": "view",
            "type": "function"
        },
        {
            "inputs": [],
            "name": "MAX_BPS",
            "outputs": [
                {
                    "internalType": "uint256",
                    "name": "",
                    "type": "uint256"
                }
            ],
            "stateMutability": "view",
            "type": "function"
        },
        {
            "inputs": [],
            "name": "PAUSER_ROLE",
            "outputs": [
                {
                    "internalType": "bytes32",
                    "name": "",
                    "type": "bytes32"
                }
            ],
            "stateMutability": "view",
            "type": "function"
        },
        {
            "inputs": [],
            "name": "POLICY_OPERATIONS_ROLE",
            "outputs": [
                {
                    "internalType": "bytes32",
                    "name": "",
                    "type": "bytes32"
                }
            ],
            "stateMutability": "view",
            "type": "function"
        },
        {
            "inputs": [],
            "name": "TREASURY_OPERATIONS_ROLE",
            "outputs": [
                {
                    "internalType": "bytes32",
                    "name": "",
                    "type": "bytes32"
                }
            ],
            "stateMutability": "view",
            "type": "function"
        },
        {
            "inputs": [],
            "name": "TREASURY_VAULT_ROLE",
            "outputs": [
                {
                    "internalType": "bytes32",
                    "name": "",
                    "type": "bytes32"
                }
            ],
            "stateMutability": "view",
            "type": "function"
        },
        {
            "inputs": [],
            "name": "UNPAUSER_ROLE",
            "outputs": [
                {
                    "internalType": "bytes32",
                    "name": "",
                    "type": "bytes32"
                }
            ],
            "stateMutability": "view",
            "type": "function"
        },
        {
            "inputs": [
                {
                    "internalType": "address",
                    "name": "_globalAccessControl",
                    "type": "address"
                }
            ],
            "name": "__GlobalAccessControlManaged_init",
            "outputs": [],
            "stateMutability": "nonpayable",
            "type": "function"
        },
        {
            "inputs": [],
            "name": "asset",
            "outputs": [
                {
                    "internalType": "contract IERC20",
                    "name": "",
                    "type": "address"
                }
            ],
            "stateMutability": "view",
            "type": "function"
        },
        {
            "inputs": [],
            "name": "assetDecimalsNormalizationValue",
            "outputs": [
                {
                    "internalType": "uint256",
                    "name": "",
                    "type": "uint256"
                }
            ],
            "stateMutability": "view",
            "type": "function"
        },
        {
            "inputs": [],
            "name": "citadel",
            "outputs": [
                {
                    "internalType": "contract IERC20",
                    "name": "",
                    "type": "address"
                }
            ],
            "stateMutability": "view",
            "type": "function"
        },
        {
            "inputs": [],
            "name": "citadelPriceFlag",
            "outputs": [
                {
                    "internalType": "bool",
                    "name": "",
                    "type": "bool"
                }
            ],
            "stateMutability": "view",
            "type": "function"
        },
        {
            "inputs": [],
            "name": "citadelPriceInAsset",
            "outputs": [
                {
                    "internalType": "uint256",
                    "name": "",
                    "type": "uint256"
                }
            ],
            "stateMutability": "view",
            "type": "function"
        },
        {
            "inputs": [],
            "name": "citadelPriceInAssetOracle",
            "outputs": [
                {
                    "internalType": "address",
                    "name": "",
                    "type": "address"
                }
            ],
            "stateMutability": "view",
            "type": "function"
        },
        {
            "inputs": [],
            "name": "claimAssetToTreasury",
            "outputs": [],
            "stateMutability": "nonpayable",
            "type": "function"
        },
        {
            "inputs": [],
            "name": "clearCitadelPriceFlag",
            "outputs": [],
            "stateMutability": "nonpayable",
            "type": "function"
        },
        {
            "inputs": [
                {
                    "internalType": "uint256",
                    "name": "_assetAmountIn",
                    "type": "uint256"
                },
                {
                    "internalType": "uint256",
                    "name": "_minCitadelOut",
                    "type": "uint256"
                }
            ],
            "name": "deposit",
            "outputs": [
                {
                    "internalType": "uint256",
                    "name": "citadelAmount_",
                    "type": "uint256"
                }
            ],
            "stateMutability": "nonpayable",
            "type": "function"
        },
        {
            "inputs": [],
            "name": "funding",
            "outputs": [
                {
                    "internalType": "uint256",
                    "name": "discount",
                    "type": "uint256"
                },
                {
                    "internalType": "uint256",
                    "name": "minDiscount",
                    "type": "uint256"
                },
                {
                    "internalType": "uint256",
                    "name": "maxDiscount",
                    "type": "uint256"
                },
                {
                    "internalType": "address",
                    "name": "discountManager",
                    "type": "address"
                },
                {
                    "internalType": "uint256",
                    "name": "assetCumulativeFunded",
                    "type": "uint256"
                },
                {
                    "internalType": "uint256",
                    "name": "assetCap",
                    "type": "uint256"
                }
            ],
            "stateMutability": "view",
            "type": "function"
        },
        {
            "inputs": [],
            "name": "gac",
            "outputs": [
                {
                    "internalType": "contract IGac",
                    "name": "",
                    "type": "address"
                }
            ],
            "stateMutability": "view",
            "type": "function"
        },
        {
            "inputs": [
                {
                    "internalType": "uint256",
                    "name": "_assetAmountIn",
                    "type": "uint256"
                }
            ],
            "name": "getAmountOut",
            "outputs": [
                {
                    "internalType": "uint256",
                    "name": "citadelAmount_",
                    "type": "uint256"
                }
            ],
            "stateMutability": "view",
            "type": "function"
        },
        {
            "inputs": [],
            "name": "getDiscount",
            "outputs": [
                {
                    "internalType": "uint256",
                    "name": "",
                    "type": "uint256"
                }
            ],
            "stateMutability": "view",
            "type": "function"
        },
        {
            "inputs": [],
            "name": "getFundingParams",
            "outputs": [
                {
                    "components": [
                        {
                            "internalType": "uint256",
                            "name": "discount",
                            "type": "uint256"
                        },
                        {
                            "internalType": "uint256",
                            "name": "minDiscount",
                            "type": "uint256"
                        },
                        {
                            "internalType": "uint256",
                            "name": "maxDiscount",
                            "type": "uint256"
                        },
                        {
                            "internalType": "address",
                            "name": "discountManager",
                            "type": "address"
                        },
                        {
                            "internalType": "uint256",
                            "name": "assetCumulativeFunded",
                            "type": "uint256"
                        },
                        {
                            "internalType": "uint256",
                            "name": "assetCap",
                            "type": "uint256"
                        }
                    ],
                    "internalType": "struct Funding.FundingParams",
                    "name": "",
                    "type": "tuple"
                }
            ],
            "stateMutability": "view",
            "type": "function"
        },
        {
            "inputs": [],
            "name": "getRemainingFundable",
            "outputs": [
                {
                    "internalType": "uint256",
                    "name": "limitLeft_",
                    "type": "uint256"
                }
            ],
            "stateMutability": "view",
            "type": "function"
        },
        {
            "inputs": [
                {
                    "internalType": "uint256",
                    "name": "_assetAmountIn",
                    "type": "uint256"
                }
            ],
            "name": "getStakedCitadelAmountOut",
            "outputs": [
                {
                    "internalType": "uint256",
                    "name": "xCitadelAmount_",
                    "type": "uint256"
                }
            ],
            "stateMutability": "view",
            "type": "function"
        },
        {
            "inputs": [
                {
                    "internalType": "address",
                    "name": "_gac",
                    "type": "address"
                },
                {
                    "internalType": "address",
                    "name": "_citadel",
                    "type": "address"
                },
                {
                    "internalType": "address",
                    "name": "_asset",
                    "type": "address"
                },
                {
                    "internalType": "address",
                    "name": "_xCitadel",
                    "type": "address"
                },
                {
                    "internalType": "address",
                    "name": "_saleRecipient",
                    "type": "address"
                },
                {
                    "internalType": "address",
                    "name": "_citadelPriceInAssetOracle",
                    "type": "address"
                },
                {
                    "internalType": "uint256",
                    "name": "_assetCap",
                    "type": "uint256"
                }
            ],
            "name": "initialize",
            "outputs": [],
            "stateMutability": "nonpayable",
            "type": "function"
        },
        {
            "inputs": [],
            "name": "maxCitadelPriceInAsset",
            "outputs": [
                {
                    "internalType": "uint256",
                    "name": "",
                    "type": "uint256"
                }
            ],
            "stateMutability": "view",
            "type": "function"
        },
        {
            "inputs": [],
            "name": "minCitadelPriceInAsset",
            "outputs": [
                {
                    "internalType": "uint256",
                    "name": "",
                    "type": "uint256"
                }
            ],
            "stateMutability": "view",
            "type": "function"
        },
        {
            "inputs": [],
            "name": "pause",
            "outputs": [],
            "stateMutability": "nonpayable",
            "type": "function"
        },
        {
            "inputs": [],
            "name": "paused",
            "outputs": [
                {
                    "internalType": "bool",
                    "name": "",
                    "type": "bool"
                }
            ],
            "stateMutability": "view",
            "type": "function"
        },
        {
            "inputs": [],
            "name": "saleRecipient",
            "outputs": [
                {
                    "internalType": "address",
                    "name": "",
                    "type": "address"
                }
            ],
            "stateMutability": "view",
            "type": "function"
        },
        {
            "inputs": [
                {
                    "internalType": "uint256",
                    "name": "_assetCap",
                    "type": "uint256"
                }
            ],
            "name": "setAssetCap",
            "outputs": [],
            "stateMutability": "nonpayable",
            "type": "function"
        },
        {
            "inputs": [
                {
                    "internalType": "uint256",
                    "name": "_minPrice",
                    "type": "uint256"
                },
                {
                    "internalType": "uint256",
                    "name": "_maxPrice",
                    "type": "uint256"
                }
            ],
            "name": "setCitadelAssetPriceBounds",
            "outputs": [],
            "stateMutability": "nonpayable",
            "type": "function"
        },
        {
            "inputs": [
                {
                    "internalType": "uint256",
                    "name": "_discount",
                    "type": "uint256"
                }
            ],
            "name": "setDiscount",
            "outputs": [],
            "stateMutability": "nonpayable",
            "type": "function"
        },
        {
            "inputs": [
                {
                    "internalType": "uint256",
                    "name": "_minDiscount",
                    "type": "uint256"
                },
                {
                    "internalType": "uint256",
                    "name": "_maxDiscount",
                    "type": "uint256"
                }
            ],
            "name": "setDiscountLimits",
            "outputs": [],
            "stateMutability": "nonpayable",
            "type": "function"
        },
        {
            "inputs": [
                {
                    "internalType": "address",
                    "name": "_discountManager",
                    "type": "address"
                }
            ],
            "name": "setDiscountManager",
            "outputs": [],
            "stateMutability": "nonpayable",
            "type": "function"
        },
        {
            "inputs": [
                {
                    "internalType": "address",
                    "name": "_saleRecipient",
                    "type": "address"
                }
            ],
            "name": "setSaleRecipient",
            "outputs": [],
            "stateMutability": "nonpayable",
            "type": "function"
        },
        {
            "inputs": [
                {
                    "internalType": "address",
                    "name": "_token",
                    "type": "address"
                }
            ],
            "name": "sweep",
            "outputs": [],
            "stateMutability": "nonpayable",
            "type": "function"
        },
        {
            "inputs": [],
            "name": "unpause",
            "outputs": [],
            "stateMutability": "nonpayable",
            "type": "function"
        },
        {
            "inputs": [
                {
                    "internalType": "uint256",
                    "name": "_citadelPriceInAsset",
                    "type": "uint256"
                }
            ],
            "name": "updateCitadelPriceInAsset",
            "outputs": [],
            "stateMutability": "nonpayable",
            "type": "function"
        },
        {
            "inputs": [],
            "name": "updateCitadelPriceInAsset",
            "outputs": [],
            "stateMutability": "nonpayable",
            "type": "function"
        },
        {
            "inputs": [],
            "name": "xCitadel",
            "outputs": [
                {
                    "internalType": "contract IVault",
                    "name": "",
                    "type": "address"
                }
            ],
            "stateMutability": "view",
            "type": "function"
        }
    ],
    "bytecode": "0x608060405234801561001057600080fd5b5061320c806100206000396000f3fe608060405234801561001057600080fd5b506004361061025e5760003560e01c80635c19521711610146578063adfaba9e116100c3578063dabd271911610087578063dabd271914610594578063e2bbb158146105a7578063e63ab1e9146105ba578063f4e79fc3146105e1578063fb1bb9de146105f4578063fd967f471461061b57600080fd5b8063adfaba9e146104f2578063bf1c14da146104ff578063c73940b314610508578063cb4c86b71461052f578063d137874b1461058c57600080fd5b80638024aa481161010a5780638024aa48146104a85780638456cb59146104b15780638c36c34c146104b95780639a347a94146104cc578063a2d7fa62146104df57600080fd5b80635c1952171461045b5780635c975abb1461046e5780637a3dbd6a146104855780637aa3f1ab146104985780637fb05875146104a057600080fd5b80631c908d98116101df578063364bc15a116101a3578063364bc15a146103eb57806338d52e0f146104125780633f4ba83a14610425578063455490521461042d5780634f4fca41146104355780635b019b761461044857600080fd5b80631c908d981461033c578063202a963a1461034f57806320bc47ae14610357578063318c18a21461037e5780633392c706146103d657600080fd5b80630f6df8b4116102265780630f6df8b4146102e757806313640132146102fa5780631460e3901461030357806317ce4f1e146103165780631a209b2e1461032957600080fd5b806301681a62146102635780630676b08714610278578063076e325c1461029e57806307be5a13146102c95780630b0cca89146102d2575b600080fd5b610276610271366004612d8f565b610624565b005b61028b610286366004612daa565b61097f565b6040519081526020015b60405180910390f35b60a0546102b1906001600160a01b031681565b6040516001600160a01b039091168152602001610295565b61028b609d5481565b61028b60008051602061319783398151915281565b6099546102b1906001600160a01b031681565b61028b609c5481565b610276610311366004612dc3565b610aa1565b610276610324366004612d8f565b610d3e565b610276610337366004612daa565b610ee8565b61027661034a366004612d8f565b6110f1565b6102766112f9565b61028b7f8e599f3d03a7b83bb12c7b64e3102b93cf1ac253479bdcfa2a79478333d2222481565b61038661145a565b60405161029591908151815260208083015190820152604080830151908201526060808301516001600160a01b0316908201526080808301519082015260a0918201519181019190915260c00190565b61028b6000805160206131b783398151915281565b61028b7ffc8737ab85eb45125971625a9ebdb75cc78e01d5c1fa80c4c6e5203f47bc4fab81565b609a546102b1906001600160a01b031681565b6102766114e2565b610276611587565b6098546102b1906001600160a01b031681565b60a1546102b1906001600160a01b031681565b61028b610469366004612daa565b611802565b60335460ff165b6040519015158152602001610295565b610276610493366004612d8f565b61185b565b61028b6118ac565b6102766118d0565b61028b609f5481565b610276611bf2565b6102766104c7366004612daa565b611c95565b6102766104da366004612e42565b611e89565b6102766104ed366004612e42565b61201d565b609e546104759060ff1681565b61028b609b5481565b61028b7f337ba9dc64713e3c4bdd6225b5a90c898a60c14899ce4ed20d62795472e1761b81565b60a25460a35460a45460a55460a65460a754610556959493926001600160a01b0316919086565b604080519687526020870195909552938501929092526001600160a01b03166060840152608083015260a082015260c001610295565b60a25461028b565b6102766105a2366004612daa565b6121fb565b61028b6105b5366004612e42565b612470565b61028b7f65d7a28e3265b37a6474929f336521b332c1681b933f6cb9f3376673440d862a81565b6065546102b1906001600160a01b031681565b61028b7f427da25fe773164f88948d3e215c94b6554e2ed5e5f203a821c9f2f6131cf75a81565b61028b61271081565b606560009054906101000a90046001600160a01b03166001600160a01b0316635c975abb6040518163ffffffff1660e01b8152600401602060405180830381865afa158015610677573d6000803e3d6000fd5b505050506040513d601f19601f8201168201806040525081019061069b9190612e74565b156106c15760405162461bcd60e51b81526004016106b890612e8f565b60405180910390fd5b60335460ff16156106e45760405162461bcd60e51b81526004016106b890612eb6565b600260665414156107375760405162461bcd60e51b815260206004820152601f60248201527f5265656e7472616e637947756172643a207265656e7472616e742063616c6c0060448201526064016106b8565b6002606655606554604051632474521560e21b81527f337ba9dc64713e3c4bdd6225b5a90c898a60c14899ce4ed20d62795472e1761b60048201819052336024830152916001600160a01b0316906391d1485490604401602060405180830381865afa1580156107ab573d6000803e3d6000fd5b505050506040513d601f19601f820116820180604052508101906107cf9190612e74565b6107eb5760405162461bcd60e51b81526004016106b890612edc565b6040516370a0823160e01b81523060048201526000906001600160a01b038416906370a0823190602401602060405180830381865afa158015610832573d6000803e3d6000fd5b505050506040513d601f19601f820116820180604052508101906108569190612f13565b90506000811161089b5760405162461bcd60e51b815260206004820152601060248201526f06e6f7468696e6720746f2073776565760841b60448201526064016106b8565b609a546001600160a01b03848116911614156109185760405162461bcd60e51b815260206004820152603660248201527f63616e6e6f742073776565702066756e64696e672061737365742c2075736520604482015275636c61696d4173736574546f5472656173757279282960501b60648201526084016106b8565b826001600160a01b03167fab2246061d7b0dd3631d037e3f6da75782ae489eeb9f6af878a4b25df9b07c778260405161095391815260200190565b60405180910390a260a154610975906001600160a01b038581169116836127cc565b5050600160665550565b60008061098b83611802565b9050609960009054906101000a90046001600160a01b03166001600160a01b03166377c7b8fc6040518163ffffffff1660e01b8152600401602060405180830381865afa1580156109e0573d6000803e3d6000fd5b505050506040513d601f19601f82011682018060405250810190610a049190612f13565b609860009054906101000a90046001600160a01b03166001600160a01b031663313ce5676040518163ffffffff1660e01b8152600401602060405180830381865afa158015610a57573d6000803e3d6000fd5b505050506040513d601f19601f82011682018060405250810190610a7b9190612f13565b610a8690600a613028565b610a909083613034565b610a9a9190613053565b9392505050565b600054610100900460ff16610abc5760005460ff1615610ac0565b303b155b610b235760405162461bcd60e51b815260206004820152602e60248201527f496e697469616c697a61626c653a20636f6e747261637420697320616c72656160448201526d191e481a5b9a5d1a585b1a5e995960921b60648201526084016106b8565b600054610100900460ff16158015610b45576000805461ffff19166101011790555b6001600160a01b038416610b8d5760405162461bcd60e51b815260206004820152600f60248201526e46756e64696e673a20302073616c6560881b60448201526064016106b8565b6001600160a01b038316610bd75760405162461bcd60e51b815260206004820152601160248201527046756e64696e673a2030206f7261636c6560781b60448201526064016106b8565b610be08861185b565b610be861282f565b609880546001600160a01b03808a166001600160a01b03199283161790925560998054888416908316179055609a8054898416908316811790915560a1805488851690841617905560a080549387169383169390931783556040805160c0810182526000808252602080830182905282840182905260608301829052608083018290529190950187905260a285905560a385905560a485905560a5805490941690935560a69390935560a7859055825163313ce56760e01b81529251909263313ce5679260048281019391928290030181865afa158015610ccd573d6000803e3d6000fd5b505050506040513d601f19601f82011682018060405250810190610cf19190612f13565b610cfc90600a613028565b609f556000609c55600019609d819055610d22906001600160a01b03891690879061285e565b8015610d34576000805461ff00191690555b5050505050505050565b606560009054906101000a90046001600160a01b03166001600160a01b0316635c975abb6040518163ffffffff1660e01b8152600401602060405180830381865afa158015610d91573d6000803e3d6000fd5b505050506040513d601f19601f82011682018060405250810190610db59190612e74565b15610dd25760405162461bcd60e51b81526004016106b890612e8f565b60335460ff1615610df55760405162461bcd60e51b81526004016106b890612eb6565b606554604051632474521560e21b815260008051602061319783398151915260048201819052336024830152916001600160a01b0316906391d1485490604401602060405180830381865afa158015610e52573d6000803e3d6000fd5b505050506040513d601f19601f82011682018060405250810190610e769190612e74565b610e925760405162461bcd60e51b81526004016106b890612edc565b60a580546001600160a01b0319166001600160a01b0384169081179091556040519081527f48df10eaa19ac4d8af7800bf7c24ace52581366303924d753f9428fd385c0f8b906020015b60405180910390a15050565b606560009054906101000a90046001600160a01b03166001600160a01b0316635c975abb6040518163ffffffff1660e01b8152600401602060405180830381865afa158015610f3b573d6000803e3d6000fd5b505050506040513d601f19601f82011682018060405250810190610f5f9190612e74565b15610f7c5760405162461bcd60e51b81526004016106b890612e8f565b60335460ff1615610f9f5760405162461bcd60e51b81526004016106b890612eb6565b60a0546001600160a01b03163314610ff95760405162461bcd60e51b815260206004820152601d60248201527f6f6e6c794369746164656c5072696365496e41737365744f7261636c6500000060448201526064016106b8565b600081116110495760405162461bcd60e51b815260206004820152601e60248201527f6369746164656c207072696365206d757374206e6f74206265207a65726f000060448201526064016106b8565b609c5481108061105a5750609d5481115b156110bc57609e805460ff19166001179055609c54609d546040517fdae48d8e5e2359674cf95610b58d63937640a27d98c74226b9186acd7034857f926110b1928583526020830191909152604082015260600190565b60405180910390a150565b609b8190556040518181527f256ba2731beb7e1131b4ca26d4459cca58b87d57f3aceb8f10afb5a2b2bc9ebd906020016110b1565b606560009054906101000a90046001600160a01b03166001600160a01b0316635c975abb6040518163ffffffff1660e01b8152600401602060405180830381865afa158015611144573d6000803e3d6000fd5b505050506040513d601f19601f820116820180604052508101906111689190612e74565b156111855760405162461bcd60e51b81526004016106b890612e8f565b60335460ff16156111a85760405162461bcd60e51b81526004016106b890612eb6565b606554604051632474521560e21b815260008051602061319783398151915260048201819052336024830152916001600160a01b0316906391d1485490604401602060405180830381865afa158015611205573d6000803e3d6000fd5b505050506040513d601f19601f820116820180604052508101906112299190612e74565b6112455760405162461bcd60e51b81526004016106b890612edc565b6001600160a01b0382166112ae5760405162461bcd60e51b815260206004820152602a60248201527f46756e64696e673a2073616c6520726563697069656e742073686f756c64206e6044820152696f74206265207a65726f60b01b60648201526084016106b8565b60a180546001600160a01b0319166001600160a01b0384169081179091556040517f22fcd0f303ce9972cac865bf07f264510ba86521618196591c01ad233f97826690600090a25050565b606560009054906101000a90046001600160a01b03166001600160a01b0316635c975abb6040518163ffffffff1660e01b8152600401602060405180830381865afa15801561134c573d6000803e3d6000fd5b505050506040513d601f19601f820116820180604052508101906113709190612e74565b1561138d5760405162461bcd60e51b81526004016106b890612e8f565b60335460ff16156113b05760405162461bcd60e51b81526004016106b890612eb6565b606554604051632474521560e21b81526000805160206131b783398151915260048201819052336024830152916001600160a01b0316906391d1485490604401602060405180830381865afa15801561140d573d6000803e3d6000fd5b505050506040513d601f19601f820116820180604052508101906114319190612e74565b61144d5760405162461bcd60e51b81526004016106b890612edc565b50609e805460ff19169055565b61149c6040518060c0016040528060008152602001600081526020016000815260200160006001600160a01b0316815260200160008152602001600081525090565b506040805160c08101825260a254815260a354602082015260a4549181019190915260a5546001600160a01b0316606082015260a654608082015260a75460a082015290565b606554604051632474521560e21b81527f427da25fe773164f88948d3e215c94b6554e2ed5e5f203a821c9f2f6131cf75a60048201523360248201526001600160a01b03909116906391d1485490604401602060405180830381865afa158015611550573d6000803e3d6000fd5b505050506040513d601f19601f820116820180604052508101906115749190612e74565b61157d57600080fd5b611585612973565b565b606560009054906101000a90046001600160a01b03166001600160a01b0316635c975abb6040518163ffffffff1660e01b8152600401602060405180830381865afa1580156115da573d6000803e3d6000fd5b505050506040513d601f19601f820116820180604052508101906115fe9190612e74565b1561161b5760405162461bcd60e51b81526004016106b890612e8f565b60335460ff161561163e5760405162461bcd60e51b81526004016106b890612eb6565b606554604051632474521560e21b81527f337ba9dc64713e3c4bdd6225b5a90c898a60c14899ce4ed20d62795472e1761b60048201819052336024830152916001600160a01b0316906391d1485490604401602060405180830381865afa1580156116ad573d6000803e3d6000fd5b505050506040513d601f19601f820116820180604052508101906116d19190612e74565b6116ed5760405162461bcd60e51b81526004016106b890612edc565b609a546040516370a0823160e01b81523060048201526000916001600160a01b0316906370a0823190602401602060405180830381865afa158015611736573d6000803e3d6000fd5b505050506040513d601f19601f8201168201806040525081019061175a9190612f13565b90506000811161179f5760405162461bcd60e51b815260206004820152601060248201526f6e6f7468696e6720746f20636c61696d60801b60448201526064016106b8565b60a154609a546117bc916001600160a01b039182169116836127cc565b609a546040518281526001600160a01b03909116907fe48ede722778e5cf66fcd476e11d72988e6ca0495f7a5e68632cac6026521f0c9060200160405180910390a25050565b600080609b54836118139190613034565b60a2549091501561184a5760a25461182d90612710613075565b61183961271083613034565b6118439190613053565b915061184e565b8091505b609f54610a9a9083613053565b600054610100900460ff166118825760405162461bcd60e51b81526004016106b89061308c565b61188a612a06565b606580546001600160a01b0319166001600160a01b0392909216919091179055565b60a65460a75460009190808210156118cb576118c88282613075565b92505b505090565b606560009054906101000a90046001600160a01b03166001600160a01b0316635c975abb6040518163ffffffff1660e01b8152600401602060405180830381865afa158015611923573d6000803e3d6000fd5b505050506040513d601f19601f820116820180604052508101906119479190612e74565b156119645760405162461bcd60e51b81526004016106b890612e8f565b60335460ff16156119875760405162461bcd60e51b81526004016106b890612eb6565b606554604051632474521560e21b81527ffc8737ab85eb45125971625a9ebdb75cc78e01d5c1fa80c4c6e5203f47bc4fab60048201819052336024830152916001600160a01b0316906391d1485490604401602060405180830381865afa1580156119f6573d6000803e3d6000fd5b505050506040513d601f19601f82011682018060405250810190611a1a9190612e74565b611a365760405162461bcd60e51b81526004016106b890612edc565b60a054604080516303bc5de360e41b8152815160009384936001600160a01b0390911692633bc5de3092600480830193928290030181865afa158015611a80573d6000803e3d6000fd5b505050506040513d601f19601f82011682018060405250810190611aa491906130d7565b909250905081611af65760405162461bcd60e51b815260206004820152601e60248201527f6369746164656c207072696365206d757374206e6f74206265207a65726f000060448201526064016106b8565b80611b435760405162461bcd60e51b815260206004820152601960248201527f6f7261636c652064617461206d7573742062652076616c69640000000000000060448201526064016106b8565b609c54821080611b545750609d5482115b15611bb857609e805460ff19166001179055609c54609d546040517fdae48d8e5e2359674cf95610b58d63937640a27d98c74226b9186acd7034857f92611bab928683526020830191909152604082015260600190565b60405180910390a1505050565b609b8290556040518281527f256ba2731beb7e1131b4ca26d4459cca58b87d57f3aceb8f10afb5a2b2bc9ebd90602001611bab565b505050565b606554604051632474521560e21b81527f65d7a28e3265b37a6474929f336521b332c1681b933f6cb9f3376673440d862a60048201523360248201526001600160a01b03909116906391d1485490604401602060405180830381865afa158015611c60573d6000803e3d6000fd5b505050506040513d601f19601f82011682018060405250810190611c849190612e74565b611c8d57600080fd5b611585612a39565b606560009054906101000a90046001600160a01b03166001600160a01b0316635c975abb6040518163ffffffff1660e01b8152600401602060405180830381865afa158015611ce8573d6000803e3d6000fd5b505050506040513d601f19601f82011682018060405250810190611d0c9190612e74565b15611d295760405162461bcd60e51b81526004016106b890612e8f565b60335460ff1615611d4c5760405162461bcd60e51b81526004016106b890612eb6565b606554604051632474521560e21b81526000805160206131b783398151915260048201819052336024830152916001600160a01b0316906391d1485490604401602060405180830381865afa158015611da9573d6000803e3d6000fd5b505050506040513d601f19601f82011682018060405250810190611dcd9190612e74565b611de95760405162461bcd60e51b81526004016106b890612edc565b60a6548211611e545760405162461bcd60e51b815260206004820152603160248201527f63616e6e6f74206465637265617365206361702062656c6f7720676c6f62616c6044820152701039bab69037b31030b9b9b2ba399034b760791b60648201526084016106b8565b60a78290556040518281527f75c41e93b7edcc1801617f8000b2dc1d3be2dbe4fe72c27f3e7fcc1925d10b6190602001610edc565b606560009054906101000a90046001600160a01b03166001600160a01b0316635c975abb6040518163ffffffff1660e01b8152600401602060405180830381865afa158015611edc573d6000803e3d6000fd5b505050506040513d601f19601f82011682018060405250810190611f009190612e74565b15611f1d5760405162461bcd60e51b81526004016106b890612e8f565b60335460ff1615611f405760405162461bcd60e51b81526004016106b890612eb6565b606554604051632474521560e21b815260008051602061319783398151915260048201819052336024830152916001600160a01b0316906391d1485490604401602060405180830381865afa158015611f9d573d6000803e3d6000fd5b505050506040513d601f19601f82011682018060405250810190611fc19190612e74565b611fdd5760405162461bcd60e51b81526004016106b890612edc565b609c839055609d82905560408051848152602081018490527f5591c67b82ba08b694c1fb719d41a2d8bf669c6a4ae0123698ceb6aa365e84649101611bab565b606560009054906101000a90046001600160a01b03166001600160a01b0316635c975abb6040518163ffffffff1660e01b8152600401602060405180830381865afa158015612070573d6000803e3d6000fd5b505050506040513d601f19601f820116820180604052508101906120949190612e74565b156120b15760405162461bcd60e51b81526004016106b890612e8f565b60335460ff16156120d45760405162461bcd60e51b81526004016106b890612eb6565b606554604051632474521560e21b815260008051602061319783398151915260048201819052336024830152916001600160a01b0316906391d1485490604401602060405180830381865afa158015612131573d6000803e3d6000fd5b505050506040513d601f19601f820116820180604052508101906121559190612e74565b6121715760405162461bcd60e51b81526004016106b890612edc565b61271082106121bb5760405162461bcd60e51b81526020600482015260166024820152756d6178446973636f756e74203e3d204d41585f42505360501b60448201526064016106b8565b60a383905560a482905560408051848152602081018490527f200fbc2ea3c4e839664840b7f47760021d1afbd1954110464fc4c4f7a123f5109101611bab565b606560009054906101000a90046001600160a01b03166001600160a01b0316635c975abb6040518163ffffffff1660e01b8152600401602060405180830381865afa15801561224e573d6000803e3d6000fd5b505050506040513d601f19601f820116820180604052508101906122729190612e74565b1561228f5760405162461bcd60e51b81526004016106b890612e8f565b60335460ff16156122b25760405162461bcd60e51b81526004016106b890612eb6565b60a554606554604051632474521560e21b81526000805160206131b783398151915260048201819052336024830152926001600160a01b039081169216906391d1485490604401602060405180830381865afa158015612316573d6000803e3d6000fd5b505050506040513d601f19601f8201168201806040525081019061233a9190612e74565b8061234d5750336001600160a01b038216145b6123a55760405162461bcd60e51b815260206004820152602360248201527f4741433a20696e76616c69642d63616c6c65722d726f6c652d6f722d6164647260448201526265737360e81b60648201526084016106b8565b60a3548310156123f05760405162461bcd60e51b8152602060048201526016602482015275191a5cd8dbdd5b9d080f081b5a5b911a5cd8dbdd5b9d60521b60448201526064016106b8565b60a45483111561243b5760405162461bcd60e51b8152602060048201526016602482015275191a5cd8dbdd5b9d080f881b585e111a5cd8dbdd5b9d60521b60448201526064016106b8565b60a28390556040518381527f1b69574255c79758c64d1a097acfd0300110698292feae84be7ab7e574f195d290602001611bab565b609e5460009060ff16156124ec5760405162461bcd60e51b815260206004820152603d60248201527f46756e64696e673a206369746164656c2070726963652066726f6d206f72616360448201527f6c6520666c616767656420616e642070656e64696e672072657669657700000060648201526084016106b8565b606560009054906101000a90046001600160a01b03166001600160a01b0316635c975abb6040518163ffffffff1660e01b8152600401602060405180830381865afa15801561253f573d6000803e3d6000fd5b505050506040513d601f19601f820116820180604052508101906125639190612e74565b156125805760405162461bcd60e51b81526004016106b890612e8f565b60335460ff16156125a35760405162461bcd60e51b81526004016106b890612eb6565b600260665414156125f65760405162461bcd60e51b815260206004820152601f60248201527f5265656e7472616e637947756172643a207265656e7472616e742063616c6c0060448201526064016106b8565b6002606655826126485760405162461bcd60e51b815260206004820152601c60248201527f5f6173736574416d6f756e74496e206d757374206e6f7420626520300000000060448201526064016106b8565b60a75460a654612659908590613103565b11156126a75760405162461bcd60e51b815260206004820152601a60248201527f61737365742066756e64696e672063617020657863656564656400000000000060448201526064016106b8565b60a6546126b5908490613103565b60a6556126c183611802565b9050818110156127035760405162461bcd60e51b815260206004820152600d60248201526c1b5a5b90da5d1859195b13dd5d609a1b60448201526064016106b8565b60a154609a54612722916001600160a01b039182169133911686612ab4565b6099546040516317a790f160e11b8152336004820152602481018390526001600160a01b0390911690632f4f21e290604401600060405180830381600087803b15801561276e57600080fd5b505af1158015612782573d6000803e3d6000fd5b505060408051868152602081018590523393507f90890809c654f11d6e72a28fa60149770a0d11ec6c92319d6ceb2bb0a4ea1a1592500160405180910390a2600160665592915050565b6040516001600160a01b038316602482015260448101829052611bed90849063a9059cbb60e01b906064015b60408051601f198184030181529190526020810180516001600160e01b03166001600160e01b031990931692909217909152612af2565b600054610100900460ff166128565760405162461bcd60e51b81526004016106b89061308c565b611585612bc4565b8015806128d85750604051636eb1769f60e11b81523060048201526001600160a01b03838116602483015284169063dd62ed3e90604401602060405180830381865afa1580156128b2573d6000803e3d6000fd5b505050506040513d601f19601f820116820180604052508101906128d69190612f13565b155b6129435760405162461bcd60e51b815260206004820152603660248201527f5361666545524332303a20617070726f76652066726f6d206e6f6e2d7a65726f60448201527520746f206e6f6e2d7a65726f20616c6c6f77616e636560501b60648201526084016106b8565b6040516001600160a01b038316602482015260448101829052611bed90849063095ea7b360e01b906064016127f8565b60335460ff166129bc5760405162461bcd60e51b815260206004820152601460248201527314185d5cd8589b194e881b9bdd081c185d5cd95960621b60448201526064016106b8565b6033805460ff191690557f5db9ee0a495bf2e6ff9c91a7834c1ba4fdd244a5e8aa4e537bd38aeae4b073aa335b6040516001600160a01b03909116815260200160405180910390a1565b600054610100900460ff16612a2d5760405162461bcd60e51b81526004016106b89061308c565b6033805460ff19169055565b60335460ff1615612a7f5760405162461bcd60e51b815260206004820152601060248201526f14185d5cd8589b194e881c185d5cd95960821b60448201526064016106b8565b6033805460ff191660011790557f62e78cea01bee320cd4e420270b5ea74000d11b0c9f74754ebdbfc544b05a2586129e93390565b6040516001600160a01b0380851660248301528316604482015260648101829052612aec9085906323b872dd60e01b906084016127f8565b50505050565b6000612b47826040518060400160405280602081526020017f5361666545524332303a206c6f772d6c6576656c2063616c6c206661696c6564815250856001600160a01b0316612bf29092919063ffffffff16565b805190915015611bed5780806020019051810190612b659190612e74565b611bed5760405162461bcd60e51b815260206004820152602a60248201527f5361666545524332303a204552433230206f7065726174696f6e20646964206e6044820152691bdd081cdd58d8d9595960b21b60648201526084016106b8565b600054610100900460ff16612beb5760405162461bcd60e51b81526004016106b89061308c565b6001606655565b6060612c018484600085612c09565b949350505050565b606082471015612c6a5760405162461bcd60e51b815260206004820152602660248201527f416464726573733a20696e73756666696369656e742062616c616e636520666f6044820152651c8818d85b1b60d21b60648201526084016106b8565b6001600160a01b0385163b612cc15760405162461bcd60e51b815260206004820152601d60248201527f416464726573733a2063616c6c20746f206e6f6e2d636f6e747261637400000060448201526064016106b8565b600080866001600160a01b03168587604051612cdd9190613147565b60006040518083038185875af1925050503d8060008114612d1a576040519150601f19603f3d011682016040523d82523d6000602084013e612d1f565b606091505b5091509150612d2f828286612d3a565b979650505050505050565b60608315612d49575081610a9a565b825115612d595782518084602001fd5b8160405162461bcd60e51b81526004016106b89190613163565b80356001600160a01b0381168114612d8a57600080fd5b919050565b600060208284031215612da157600080fd5b610a9a82612d73565b600060208284031215612dbc57600080fd5b5035919050565b600080600080600080600060e0888a031215612dde57600080fd5b612de788612d73565b9650612df560208901612d73565b9550612e0360408901612d73565b9450612e1160608901612d73565b9350612e1f60808901612d73565b9250612e2d60a08901612d73565b915060c0880135905092959891949750929550565b60008060408385031215612e5557600080fd5b50508035926020909101359150565b80518015158114612d8a57600080fd5b600060208284031215612e8657600080fd5b610a9a82612e64565b6020808252600d908201526c19db1bd8985b0b5c185d5cd959609a1b604082015260600190565b6020808252600c908201526b1b1bd8d85b0b5c185d5cd95960a21b604082015260600190565b60208082526018908201527f4741433a20696e76616c69642d63616c6c65722d726f6c650000000000000000604082015260600190565b600060208284031215612f2557600080fd5b5051919050565b634e487b7160e01b600052601160045260246000fd5b600181815b80851115612f7d578160001904821115612f6357612f63612f2c565b80851615612f7057918102915b93841c9390800290612f47565b509250929050565b600082612f9457506001613022565b81612fa157506000613022565b8160018114612fb75760028114612fc157612fdd565b6001915050613022565b60ff841115612fd257612fd2612f2c565b50506001821b613022565b5060208310610133831016604e8410600b8410161715613000575081810a613022565b61300a8383612f42565b806000190482111561301e5761301e612f2c565b0290505b92915050565b6000610a9a8383612f85565b600081600019048311821515161561304e5761304e612f2c565b500290565b60008261307057634e487b7160e01b600052601260045260246000fd5b500490565b60008282101561308757613087612f2c565b500390565b6020808252602b908201527f496e697469616c697a61626c653a20636f6e7472616374206973206e6f74206960408201526a6e697469616c697a696e6760a81b606082015260800190565b600080604083850312156130ea57600080fd5b825191506130fa60208401612e64565b90509250929050565b6000821982111561311657613116612f2c565b500190565b60005b8381101561313657818101518382015260200161311e565b83811115612aec5750506000910152565b6000825161315981846020870161311b565b9190910192915050565b602081526000825180602084015261318281604085016020870161311b565b601f01601f1916919091016040019291505056fe32522ae3fcc93c551ea7d30f39aaf5cf6e316c65a500706f77e9ecdd09ee1136f569e5f3f5937cbac9b65efc7a737c2c076c5c85f21b131e09a93cb09c14b658a2646970667358221220bb7d842016b4d3bccd9552c5794c13e285db9b7491ce02bb8a023e0abf68b57464736f6c634300080c0033",
    "linkReferences": {},
    "deployedLinkReferences": {}
}